:100000000C9440010C94CA070C949F070C9474073D
:100010000C9449070C941E070C94F3060C94C80624
:100020000C949D060C9471010C9471010C94710157
:100030000C9471010C9471010C9471010C94710178
:100040000C9471010C9471010C9471010C94710168
:100050000C9471010C9471010C9471010C94530671
:100060000C9471010C941F080C94F5070C94710109
:100070000C9471010C9471010C9471010C94710138
:100080000C9471010C9471010C9471010C94710128
:100090000C9471010C9471010C9471010C94710118
:1000A0000C9471010C9471010C9471010C94710108
:1000B0000C9471010C9471010C9471010C947101F8
:1000C0000C9471010C9471010C9471010C947101E8
:1000D0000C9471010C9471010C9471010C947101D8
:1000E0000C9471010C94B6020C94B0020C94C402EE
:1000F0000C9455080C9402020C943A020C941A02C7
:100100000C9461050C94DC040C9498020C949102FC
:100110000C94AB040C940F060C9495020C94CE0432
:100120000C94A8020C948D020C9414050C94FF05F9
:100130000C940A020C943E060C94A2020C949E02AB
:100140000C947E040C9472020C94AC020C94770212
:100150000C94BA040C9489020C947D040C94320221
:100160000C9422020C9412020C94BE020C94BA025B
:100170000C94C8020C942A020000210024002700DD
:100180002A002D00300033000101000004010701A6
:100190000A0100002200250028002B002E0031005B
:1001A000340002010000050108010B0105050505E9
:1001B000070508080808020202020A0A08080404DF
:1001C000040401010101010101010303030303030D
:1001D0000303040707070C0C0C0C0C0C0C0C02029C
:1001E000020206060606060606060B0B0B0B0B0B99
:1001F0000B0B010210202008081020401020408026
:1002000002010201080402010102040810204080DA
:100210008040201008040201800402018040201068
:1002200008040201080402010102040810204080B1
:10023000010204081020408000000A0B02090C0D86
:100240000E08070304010000000000000000000089
:10025000000000000000000000000000000000009E
:10026000000000001211100000000000000000005B
:100270000000000000000000000000000000550821
:1002800011241FBECFEFD1E2DEBFCDBF00E00CBF17
:1002900012E0A0E0B2E0ECEFF4E100E00BBF02C03E
:1002A00007900D92AC3AB107D9F723E0ACEAB2E07F
:1002B00001C01D92A439B207E1F711E0C0E4D1E01A
:1002C00000E006C021970109802FFE010E94740AF8
:1002D000CF33D10780E00807A9F70E9493080C9458
:1002E0007C0A0C940000CF93DF93AC0180918003D3
:1002F000E3E8F3E020E0821334C0A9E6B3E030E0A5
:1003000090E060E478E0C3E6D0E8231709F45CC02D
:10031000FA01E90FF11DE081EE2309F455C080EDEB
:100320008E0F8A3008F50E2E000CFF0BE451FE4FA5
:1003300080815A968C935A9781E0890FFA01E80FD1
:10034000F11DE081EE3249F45A968C915A978068FB
:100350005A968C935A9782E0890F3F5F1196982F97
:10036000D4CF11922F5FC7CF8FEB8E0F8A3130F42D
:100370000E2E000CFF0BEB51FE4FDACF8FE98E0FE4
:100380008A3130F40E2E000CFF0BEB53FE4FD0CF12
:10039000E03221F45A961C925A97CECFEE3221F4D5
:1003A0005A96DC935A97C8CFEA3221F45A96CC93E6
:1003B0005A97C2CFEF3521F45A967C935A97BCCF07
:1003C0005A966C935A97B8CFDF91CF910895E82F42
:1003D000F0E0DF01AA0FBB1FA050BE4F11967C9327
:1003E0006E93883008F04DC08827E650FE4F8F4F3F
:1003F0000C94740A22022A0202020A0212021A024F
:1004000032023A02809169008C7F82608093690099
:10041000E89A089580916900837F886080936900DD
:10042000E99A0895809169008F7C806280936900C9
:10043000EA9A0895809169008F73806880936900BB
:10044000EB9A089580916A008C7F826080936A00A5
:10045000EC9A089580916A00837F886080936A0097
:10046000ED9A089580916A008F7C806280936A0083
:10047000EE9A089580916A008F73806880936A0075
:10048000EF9A0895282F30E0F901E85CFD4F949130
:10049000F901EE50FE4F449124553E4FF90124914D
:1004A000222309F435C0992311F191509231F8F4C7
:1004B000E92FF0E08827E05AFD4F8F4F0C94740A23
:1004C00091029502720289028D02770298029E02C1
:1004D000A202A802AC02B002B602BA027702BE02C1
:1004E000C402C802809180008F7780938000E22F41
:1004F000F0E0EE0FFF1FEE56FE4FA591B4918FB7BF
:10050000F894EC91611148C040954E234C938FBFF5
:100510000895809180008F7DE8CF80918000877F53
:10052000E4CF84B58F7784BDE2CF84B58F7DFBCFD8
:100530008091B0008F778093B000D9CF8091B000C8
:100540008F7DF9CF809190008F7780939000CFCFEF
:10055000809190008F7DF9CF80919000877FF5CFBB
:100560008091A0008F778093A000C1CF8091A000E0
:100570008F7DF9CF8091A000877FF5CF80912001FA
:100580008F7780932001B3CF809120018F7DF9CFA9
:1005900080912001877FF5CF4E2BB8CFCF93DF938B
:1005A000C82FD0E080918103D81758F4ED2FF0E0E8
:1005B000E759FC4F60916C0387850E944202DF5F20
:1005C000F1CFEC2FF0E0E759FC4F60916A0387818F
:1005D000DF91CF910C9442021F93CF93DF93C82FEA
:1005E000D0E0C759DC4F609169038F810E944202BD
:1005F00010E06A96809181031817A8F4E12FF0E0CB
:10060000888190E0012E02C0959587950A94E2F7C3
:1006100080FF07C0E759FC4F60916B0387850E94FC
:1006200042021F5FE7CFDF91CF911F910895CF93D3
:10063000DF93C82FD0E080918003D81758F4ED2FB6
:10064000F0E0E759FC4F60916A0387810E94420203
:10065000DF5FF1CFEC2FF0E0E759FC4F60916C03C6
:100660008785DF91CF910C9442020F931F93CF9314
:10067000C82FE82FF0E0E759FC4F60916B038785A6
:100680000E94420201E010E002C0000F111FCA9553
:10069000E2F7C0E080918003C81788F4EC2FF0E007
:1006A000E759FC4F828D90E080239123892B29F01C
:1006B0006091690387810E944202CF5FEBCFCF91A7
:1006C0001F910F910895CF93DF9390E0FC01EE50BE
:1006D000FE4F249184559E4FFC0184918823D1F0D4
:1006E00090E0880F991FFC01E858FE4FA591B49146
:1006F000FC01EE56FE4FC591D49161110EC09FB71B
:10070000F8948C91E22FE0958E238C932881E2233C
:10071000E8839FBFDF91CF9108958FB7F894EC9154
:10072000E22BEC938FBFF6CF8230910538F0880F23
:10073000991F880F991F05970197F1F70895CF9298
:10074000DF92EF92FF92CF9380916E0381119BC055
:100750003FB7F8948091C8029091C902A091CA0253
:10076000B091CB0226B5A89B05C02F3F19F001968A
:10077000A11DB11D3FBFBA2FA92F982F8827820F27
:10078000911DA11DB11D42E0880F991FAA1FBB1F1B
:100790004A95D1F72091930340918B0350918C039C
:1007A00060918D0370918E036C017D01C41AD50A8E
:1007B000E60AF70A4091910350919203211104C077
:1007C00040918F035091900370E060E0C416D5060D
:1007D000E606F70688F180938B0390938C03A09331
:1007E0008D03B0938E038091820390916D039111DC
:1007F00029C02223B1F010929303809182038F5F6E
:100800008093820390918103891710F010928203E4
:1008100080918203CF91FF90EF90DF90CF900C9466
:1008200035030E9417038091910390919203892BC5
:1008300021F381E080939303CF91FF90EF90DF90BD
:10084000CF9008952223B1F01092930380918203F8
:100850008F5F8093820390918003891710F010922C
:10086000820380918203CF91FF90EF90DF90CF9031
:100870000C94EC020E94CE0280919103909192031D
:10088000892B21F3D6CF80916D03C0E081111AC06E
:1008900080918103C81780F68C2F0E9435038091C8
:1008A0008F03909190030E9494038C2F0E94170352
:1008B0008091910390919203009711F00E9494030C
:1008C000CF5FE6CF80918003C81708F0B5CF8C2F9B
:1008D0000E94EC0280918F03909190030E949403F8
:1008E0008C2F0E94CE0280919103909192030097E9
:1008F00011F00E949403CF5FE5CF0895AF92BF92AD
:10090000CF92DF92EF92FF920F931F93CF93DF93DB
:100910006C017B018B01040F151FEB015E01AE180A
:10092000BF08C017D10759F06991D601ED91FC912C
:100930000190F081E02DC6011995892B79F7C50149
:10094000DF91CF911F910F91FF90EF90DF90CF90AB
:10095000BF90AF900895FC01538D448D252F30E05A
:10096000842F90E0821B930B541710F0CF960895BC
:1009700001970895FC01918D828D981761F0A28DE9
:10098000AE0FBF2FB11D5D968C91928D9F5F9F73AF
:10099000928F90E008958FEF9FEF0895FC01918D65
:1009A000828D981731F0828DE80FF11D858D90E0D2
:1009B00008958FEF9FEF0895FC01918D228D892F6F
:1009C00090E0805C9F4F821B91098F739927089557
:1009D0008CEC92E00E94DC0421E0892B09F420E0F9
:1009E000822F0895FC01A48DA80FB92FB11DA35A21
:1009F000BF4F2C91848D90E001968F739927848F3F
:100A0000A689B7892C93A089B1898C918370806461
:100A10008C93938D848D981306C00288F389E02D02
:100A200080818F7D80830895EF92FF920F931F93B3
:100A3000CF93DF93EC0181E0888F9B8D8C8D981391
:100A40001AC0E889F989808185FF15C09FB7F8949D
:100A5000EE89FF896083E889F989808183708064E9
:100A600080839FBF81E090E0DF91CF911F910F9134
:100A7000FF90EF900895F62E0B8D10E00F5F1F4F43
:100A80000F731127E02E8C8D8E110CC00FB607FC52
:100A9000FACFE889F989808185FFF5CFCE010E94E0
:100AA000F204F1CFEB8DEC0FFD2FF11DE35AFF4F58
:100AB000F0829FB7F8940B8FEA89FB89808180626E
:100AC000CFCFCF93DF93EC01888D8823B9F0AA892B
:100AD000BB89E889F9898C9185FD03C0808186FDF9
:100AE0000DC00FB607FCF7CF8C9185FFF2CF808148
:100AF00085FFEDCFCE010E94F204E9CFDF91CF91C7
:100B0000089580E090E0892B29F00E94E80481118B
:100B10000E94000080E090E0892B49F080E090E0A6
:100B2000892B29F00E94000081110E94000080E0C2
:100B300090E0892B49F080E090E0892B29F00E9419
:100B4000000081110E94000080E090E0892B49F0B4
:100B500080E090E0892B29F00E94000081110C9424
:100B600000000895CF92DF92EF92FF920F931F93B0
:100B70002FB7F8944091C4025091C5026091C6020B
:100B80007091C7022FBFFC01008111812281338146
:100B90006A017B01C01AD10AE20AF30A97018601B1
:100BA00080E0083C11052105310528F04083518380
:100BB0006283738381E01F910F91FF90EF90DF902C
:100BC000CF900895CF93DF93FC0101900020E9F7C7
:100BD0003197AF01481B590BBC018CEC92E00E948D
:100BE0007E04EC0142E050E067E572E08CEC92E0BC
:100BF0000E947E048C0F9D1FDF91CF91089580EBA2
:100C000092E00E94B205882349F08AE592E00E94B2
:100C1000E2058091BE0281111092BE0208958CEA15
:100C200092E00E94B205882359F083E792E00E9487
:100C3000E2058091BE02811103C081E08093BE0273
:100C40000895CF93DF9300D000D000D01F92CDB78E
:100C5000DEB74AE0BE016F5F7F4F0E943F0ACE01C0
:100C600001960E9473010E949F032A960FB6F89482
:100C7000DEBF0FBECDBFDF91CF91089584EB92E030
:100C80000E94B205882371F08DE892E00E94E2058F
:100C90001092BD021092BC028091BC029091BD02E4
:100CA0000C94210608951F920F920FB60F921124F3
:100CB0002F933F938F939F93AF93BF938091C402E1
:100CC0009091C502A091C602B091C7023091C302B3
:100CD00023E0230F2D3758F50196A11DB11D209358
:100CE000C3028093C4029093C502A093C602B0933E
:100CF000C7028091C8029091C902A091CA02B09126
:100D0000CB020196A11DB11D8093C8029093C90228
:100D1000A093CA02B093CB02BF91AF919F918F91E4
:100D20003F912F910F900FBE0F901F90189526E8BE
:100D3000230F0296A11DB11DD2CF1F920F920FB6A5
:100D40000F9211240BB60F922F933F934F935F9303
:100D50006F937F938F939F93AF93BF93EF93FF9383
:100D6000E0910E02F0910F021995FF91EF91BF9162
:100D7000AF919F918F917F916F915F914F913F9133
:100D80002F910F900BBE0F900FBE0F901F901895D4
:100D90001F920F920FB60F9211240BB60F922F9342
:100DA0003F934F935F936F937F938F939F93AF93F3
:100DB000BF93EF93FF93E0910C02F0910D02199510
:100DC000FF91EF91BF91AF919F918F917F916F9123
:100DD0005F914F913F912F910F900BBE0F900FBEDF
:100DE0000F901F9018951F920F920FB60F9211241B
:100DF0000BB60F922F933F934F935F936F937F9315
:100E00008F939F93AF93BF93EF93FF93E091020271
:100E1000F09103021995FF91EF91BF91AF919F91CE
:100E20008F917F916F915F914F913F912F910F9093
:100E30000BBE0F900FBE0F901F9018951F920F9230
:100E40000FB60F9211240BB60F922F933F934F932F
:100E50005F936F937F938F939F93AF93BF93EF9322
:100E6000FF93E0910002F09101021995FF91EF913B
:100E7000BF91AF919F918F917F916F915F914F91B2
:100E80003F912F910F900BBE0F900FBE0F901F90B0
:100E900018951F920F920FB60F9211240BB60F9256
:100EA0002F933F934F935F936F937F938F939F9372
:100EB000AF93BF93EF93FF93E0910A02F0910B027F
:100EC0001995FF91EF91BF91AF919F918F917F9174
:100ED0006F915F914F913F912F910F900BBE0F90AB
:100EE0000FBE0F901F9018951F920F920FB60F9282
:100EF00011240BB60F922F933F934F935F936F93F1
:100F00007F938F939F93AF93BF93EF93FF93E09162
:100F10000802F09109021995FF91EF91BF91AF91ED
:100F20009F918F917F916F915F914F913F912F9101
:100F30000F900BBE0F900FBE0F901F9018951F9231
:100F40000F920FB60F9211240BB60F922F933F936F
:100F50004F935F936F937F938F939F93AF93BF93C1
:100F6000EF93FF93E0910602F09107021995FF912C
:100F7000EF91BF91AF919F918F917F916F915F9111
:100F80004F913F912F910F900BBE0F900FBE0F907E
:100F90001F9018951F920F920FB60F9211240BB647
:100FA0000F922F933F934F935F936F937F938F9302
:100FB0009F93AF93BF93EF93FF93E0910402F0915F
:100FC00005021995FF91EF91BF91AF919F918F917C
:100FD0007F916F915F914F913F912F910F900BBE39
:100FE0000F900FBE0F901F9018951F920F920FB683
:100FF0000F9211240BB60F922F933F934F935F9351
:101000006F937F938F939F93AF93BF93EF93FF93D0
:101010008CEC92E00E94F204FF91EF91BF91AF91AE
:101020009F918F917F916F915F914F913F912F9100
:101030000F900BBE0F900FBE0F901F9018951F9230
:101040000F920FB60F9211240BB60F922F938F931E
:101050009F93EF93FF93E091DC02F091DD0280819A
:10106000E091E202F091E30282FD1DC09081809147
:10107000E5028F5F8F732091E602821741F0E091C5
:10108000E502F0E0E453FD4F958F8093E502FF9178
:10109000EF919F918F912F910F900BBE0F900FBEEC
:1010A0000F901F9018958081F2CFECECF2E0138244
:1010B000128288EE93E0A0E0B0E084839583A6835B
:1010C000B78389E492E09183808385EC90E09587F3
:1010D000848784EC90E09787868780EC90E0918B02
:1010E000808B81EC90E0938B828B82EC90E0958BEF
:1010F000848B86EC90E0978B868B118E128E138EEC
:10110000148EE9E6F3E080ED97E097A386A311A69D
:1011100010A612A6178A118E12A213A214A215A24B
:10112000148215820895CF93DF93CDB7DEB72C9745
:101130000FB6F894DEBF0FBECDBF789484B5826041
:1011400084BD84B5816084BD85B5826085BD85B56B
:10115000816085BD80916E00816080936E001092E9
:101160008100809181008260809381008091810064
:1011700081608093810080918000816080938000F5
:101180008091B10084608093B1008091B000816053
:101190008093B00080919100826080939100809153
:1011A0009100816080939100809190008160809394
:1011B00090008091A10082608093A1008091A100A5
:1011C00081608093A1008091A00081608093A00045
:1011D00080912101826080932101809121018160B1
:1011E0008093210180912001816080932001809172
:1011F0007A00846080937A0080917A008260809384
:101200007A0080917A00816080937A0080917A00E0
:10121000806880937A001092C100E091DC02F09126
:10122000DD0282E08083E091D802F091D902108241
:10123000E091DA02F091DB028FEC80831092E402FD
:10124000E091E002F091E10286E08083E091DE022D
:10125000F091DF02808180618083E091DE02F09175
:10126000DF02808188608083E091DE02F091DF02FE
:10127000808180688083E091DE02F091DF028081CE
:101280008F7D808360E082E10E9463036FE076E0FF
:1012900085E00E94E70160E083E00E9463036FEF56
:1012A00075E081E00E94E70160E082E00E94630354
:1012B0006EE376E080E00E94E70188E0E0E1F2E0A2
:1012C000DE01119601900D928A95E1F78091180246
:1012D00090911902A0911A02B0911B0289879A87F6
:1012E000AB87BC8710926D0310926E0310926F0350
:1012F00084E08093800388E08093810381E0809381
:10130000690310926B0310926A0380936C03FE01D1
:101310003196A8E7B3E0CE01099621912D938E175F
:101320009F07D9F78985809370038A85809371031D
:101330008B85809372038C858093730310E080917A
:101340008003181798F4812F90E09C0127593C4F97
:10135000790161E0F90187810E94630360916A036A
:10136000F70187810E9442021F5FE9CF10E0809160
:101370008103181750F090918003E3E8F3E080E0D8
:101380009817B1F011928F5FFBCF812F90E09C01F5
:1013900027593C4F790161E0F90187850E94630379
:1013A00060916C03F70187850E9442021F5FDFCFC7
:1013B00080E00E94170380E00E94CE0280EB94E060
:1013C0009093900380938F03109292031092910355
:1013D0001092930387EA92E00E9473012FB7F8946A
:1013E0008091C4029091C502A091C602B091C7023B
:1013F0002FBF8093BF029093C002A093C102B0930D
:10140000C2022091BE02222389F14091B80250917C
:10141000B9026091BA027091BB028C019D01041B5C
:10142000150B260B370BB901A801483E5340610547
:101430007105B8F08093B8029093B902A093BA02F4
:10144000B093BB028091BC029091BD020196909333
:10145000BD028093BC028091BC029091BD020E94AB
:1014600021060E949F030E948105B8CF8093B80295
:101470009093B902A093BA02B093BB02F2CFBB27FC
:101480004A3031F4992322F4BDE2909581959F4F23
:101490000C944B0ABB27FB015527AA27880F991FDD
:1014A000AA1FA41710F0A41B83955051B9F7A05D93
:1014B000AA3308F0A95DA193009779F7B111B19310
:1014C0001192CB010C94640ADC01FC01672F71912D
:1014D0007723E1F7329704C07C916D93708362911A
:1014E000AE17BF07C8F30895EE0FFF1F881F8BBF0D
:0C14F0000790F691E02D1994F894FFCFBE
:1014FC007D047D047D047D047D047D047D047D04D8
:10150C0022252B2C2A23292D202124283F065B4F12
:10151C00666D7D077F6F777C395E79713D76300E15
:10152C00763800543F7367506D783E3E00766E5BA4
:10153C0000408063080000000014057E04AB0461C9
:10154C0005DC04BA04CE040D0A0053746F702042FB
:10155C007574746F6E207761732070726573736528
:10156C00642100537461727420427574746F6E2020
:10157C0077617320707265737365642100526573B3
:10158C00657420427574746F6E207761732070726D
:0C159C006573736564210038383838002E
:00000001FF
